:03000000020026D5
:0C002600787FE4F6D8FD75811402006DAF
:10018C00030C000000010830010B30010F3301108B
:07019C0000010930010A0017
:10016C00758922758C14E4F58AD28C758DFD758B8E
:10017C00FDD28EC29FD29ED29CD2AFD2ACD2A9223B
:080146008F148E138D128C1131
:10014E00D3EF9400EE940040147D6E7C00ED1D7094
:0D015E00011CED4C70F7EF1F70E61E80E3F2
:01016B002271
:0901A400D29185A00AC291AF0AB4
:0D01AD00E508B430078F993099FDC2992202
:1000B20012016CE50BB431FBE50F6432701CD2B750
:1000C2007FB87E0BFDFC120146C294D294C29430DA
:1000D20093FD1201A475A0FFC2B7E50FB433D4E5B6
:1000E20009B431CFD2B77F147E007D007C001201AB
:1000F20046C294D294C2943093FD1201A475093081
:0701020075A0FFC2B780AC3D
:03002300020109CE
:10010900C0E0C0D075D000C00030982AC298E50878
:10011900B43006750831751000740C2510F8A699CD
:10012900E5106402700E850C09850D0B850E0F759F
:0D013900083080020510D000D0D0D0E03298
:03000B00020003ED
:03000300B2903286
:100032000200B2E493A3F8E493A34003F68001F232
:1000420008DFF48029E493A3F85407240CC8C333CF
:10005200C4540F4420C8834004F456800146F6DF9E
:10006200E4800B010204081020408090018CE47EA1
:10007200019360BCA3FF543F30E509541FFEE49393
:10008200A360010ECF54C025E060A840B8E493A35A
:10009200FAE493A3F8E493A3C8C582C8CAC583CA85
:1000A200F0A3C8C582C8CAC583CADFE9DEE780BE3D
:0101A300005B
:00000001FF
