:03000000020026D5
:0C002600787FE4F6D8FD75811402006DAF
:10019600030C000000010830010B30010F33011081
:0701A60000010930010A000D
:10017600758922758C14E4F58AD28C758DFD758B84
:10018600FDD28EC29FD29ED29CD2AFD2ACD2A92231
:080150008F148E138D128C1127
:10015800D3EF9400EE940040147D6E7C00ED1D708A
:0D016800011CED4C70F7EF1F70E61E80E3E8
:010175002267
:0901AE00D29185A00AC291AF0AAA
:0D01B700E508B430078F993099FDC29922F8
:1000B200120176E50BB431FBE50F64327021D2B741
:1000C2007FB87E0BFDFC120150C294D294AF901205
:1000D20001B7C2943093FD1201AE75A0FFC2B7E51D
:1000E2000FB433CFE509B431CAD2B77F147E007D95
:1000F200007C00120150C294D294AF0C1201B7C21C
:10010200943093FD1201AE75093075A0FFC2B7801D
:01011200A24A
:03002300020113C4
:10011300C0E0C0D075D000C00030982AC298E5086E
:10012300B43006750831751000740C2510F8A699C3
:10013300E5106402700E850C09850D0B850E0F7595
:0D014300083080020510D000D0D0D0E0328E
:03000B00020003ED
:03000300B2903286
:100032000200B2E493A3F8E493A34003F68001F232
:1000420008DFF48029E493A3F85407240CC8C333CF
:10005200C4540F4420C8834004F456800146F6DF9E
:10006200E4800B0102040810204080900196E47E97
:10007200019360BCA3FF543F30E509541FFEE49393
:10008200A360010ECF54C025E060A840B8E493A35A
:10009200FAE493A3F8E493A3C8C582C8CAC583CA85
:1000A200F0A3C8C582C8CAC583CADFE9DEE780BE3D
:0101AD000051
:00000001FF
